:020000040800F2
:100000002831002031020008390200083B020008B4
:100010003D0200083F020008410200080000000005
:100020000000000000000000000000007102000855
:100030004502000800000000DD020008ED02000893
:100040004B0200084B0200084B0200084B0200085C
:100050004B0200084B0200084B0200084B0200084C
:100060004B0200084B0200084B020008352700082D
:10007000552700087527000895270008B5270008B0
:10008000D5270008F52700084B0200084B0200089E
:10009000817500084B0200084B0200084B02000863
:1000A0004B0200084B0200084B0200084B020008FC
:1000B0004B0200084B0200084B0200084B020008EC
:1000C0004B0200084B0200084B02000809360008EA
:1000D0004B0200084B0200084B0200084B020008CC
:1000E0004B0200084B0200084B0200084B020008BC
:1000F0004B0200084B0200084B0200084B020008AC
:100100004B0200084B0200084B0200084B0200089B
:100110004B0200084B0200084B0200084B0200088B
:1001200015280008352800085928000879280008F3
:1001300000F002F800F068F80AA090E8000C824491
:100140008344AAF10107DA4501D100F05DF8AFF26E
:10015000090EBAE80F0013F0010F18BFFB1A43F0A5
:1001600001031847A87C0000C87C00000A444FF037
:10017000000C10F8013B13F0070408BF10F8014B06
:100180001D1108BF10F8015B641E05D010F8016B4B
:10019000641E01F8016BF9D113F0080F1EBF10F8AF
:1001A000014BAD1C0C1B09D16D1E58BF01F801CBD2
:1001B000FAD505E014F8016B01F8016B6D1EF9D555
:1001C0009142D6D37047000000230024002500266A
:1001D000103A28BF78C1FBD8520728BF30C148BFAA
:1001E0000B607047642900F02381002070471FB521
:1001F00000F041FB04000020002107F09BFB401CA5
:1002000060601FBD10B510BD00F0B6FB114603B411
:1002100007F032FB03BCFFF7EAFF07F031FB00F009
:10022000D0FB03B4FFF7EEFF03BC00F0D3FB0000EC
:100230000948804709480047FEE7FEE7FEE7FEE77A
:10024000FEE7FEE7FEE7FEE7FEE7FEE704480549B6
:10025000054A064B704700001943000831010008A9
:1002600028270020283100202829002028290020C4
:100270001EF0040F0CBFEFF30880EFF309808169D3
:1002800011F8021CD9B901B590E80F10E047BDE89C
:1002900000508CE80300194B93E80600914208BF18
:1002A000704719B12CE9F00FC1F838C01A60906B93
:1002B000B0E8F00F80F309886FF0020E7047104A23
:1002C00013689942FAD801B552F821C00FC8E04727
:1002D000BDE80050CCF800007047000001B500F008
:1002E00049FFBDE80140EFF3098CD4E701B501F007
:1002F000A1F9BDE80140EFF3098CCCE750190020CB
:10030000C079000810B500F0B6FA001D10BD00BF9E
:100310002576000053EA020C00F069802DE9F04BCD
:100320004FF00006002B1FBFB3FA83F503FA05F464
:1003300024FA05F65E4012BF1643B2FA82F502FABD
:1003400005F4C5F120051EBF22FA05FC44EA0C04A1
:10035000203556EA044C4FEA144418BF641C4FF091
:1003600000084FF00009904271EB030C39D30029CB
:1003700019BFB1FA81F701FA07F6B0FA80F700FA6F
:1003800007F6C7F120071EBF20FA07FC46EA0C0655
:100390002037B6FBF4FCA7EB0507103F07F01F0B57
:1003A000CBF120060CFA0BFB2CFA06F644BFB34641
:1003B0000026202FA4BF5E464FF0000B5BEA060C20
:1003C00008BF4FF0010B19EB0B09ABFB027C48EBAC
:1003D0000608C01B06FB02CC0BFB03CC71EB0C0127
:1003E000C1E70B46024641464846BDE8F08B13B5CF
:1003F0004FF000004FF00001AFF30080BDE81C405B
:10040000704700000FB41CB5084B06AA7B44694630
:100410000090059800F093FA04460020694600F029
:10042000A1FA20461CBC5DF814FB00005505000035
:100430002DE9F0410646002410687529314616A5BD
:1004400010D0AFF30080002802DA404213A507E085
:1004500031688A0701D512A502E0490704D511A524
:10046000012401E0AFF3008000210A2206F12407F5
:1004700009E0B0FBF2FCB0FBF2F302FB1C003030F1
:1004800078541846491C0028F3D123462A463046A2
:10049000BDE8F04100F0F4B9000000002D000000BC
:1004A0002B000000200000002DE9F05F8946044683
:1004B0004FF0000ADFF874B1FB44C0F820A02046DA
:1004C000E1688847002874D0252806D0D4E90121A6
:1004D0009047206A401C2062F1E700265F462046D4
:1004E000E16888472028054607DB312D05D27819B9
:1004F00010F8200C08B10643F1E7B00701D526F04B
:100500000406C4F81CA00027C4F818A02A2D09D09E
:10051000284607F07FF938B304EB8708303DC8F868
:10052000185019E059F8041B204604EB870291612A
:10053000E1688847012F054618D1E069002820DAD4
:1005400026F020061DE0D8F8180000EB800005EB2F
:1005500040003038C8F818002046E1688847054652
:1005600007F058F90028EED1012F0AD02E2D08D11E
:100570002046E16888477F1C0546022F46F020068A
:10058000C4DBA069002803DA404246F00106A061FE
:10059000F00701D026F010066C2D0BD0682D09D085
:1005A0004C2D39D06A2D35D0742D35D07A2D33D0DD
:1005B00016E038E0E1682F4620468847B8420546F5
:1005C00009D16C2F26D04FF48060E16806432046A5
:1005D0008847054604E06C2F1AD04FF4807006431C
:1005E0000DB3A5F14100192802D8203546F4006664
:1005F0004A462946204626604E46FFF7F3FD80B165
:1006000001280BD0F61D26F0070000F1080956E777
:100610004020E4E78020D8E70020D6E706F104096F
:100620004DE7284652E7206ABDE8F09FB678000003
:1006300010B5431C02E010F8011B71B18107FAD11B
:100640004FF0013202C88C1A8C4314EAC211F9D05F
:10065000C01A0A0603D0C01E10BDC01A10BD0A047D
:1006600001D0801E10BD0902FCD0401E10BD032A1F
:1006700040F2308010F0030C00F0158011F8013BBF
:10068000BCF1020F624498BF11F801CB00F8013BA6
:1006900038BF11F8013BA2F1040298BF00F801CB6A
:1006A00038BF00F8013B11F0030300F02580083A41
:1006B000C0F0088051F8043B083A51F804CBA0E898
:1006C0000810F5E7121D5CBF51F8043B40F8043BED
:1006D000AFF30080D20724BF11F8013B11F801CB22
:1006E00048BF11F8012B24BF00F8013B00F801CBF3
:1006F00048BF00F8012B704710B5203AC0F00B80BE
:10070000B1E81850203AA0E81850B1E81850A0E815
:100710001850BFF4F5AF5FEA027C24BFB1E818506F
:10072000A0E8185044BF18C918C0BDE810405FEADF
:10073000827C24BF51F8043B40F8043B08BF70475B
:10074000D20728BF31F8023B48BF11F8012B28BF60
:1007500020F8023B48BF00F8012B70474FF0000221
:100760000429C0F0128010F0030C00F01B80CCF1C3
:10077000040CBCF1020F18BF00F8012BA8BF20F831
:10078000022BA1EB0C0100F00DB85FEAC17C24BF85
:1007900000F8012B00F8012B48BF00F8012B70472F
:1007A0004FF0000200B5134694469646203922BF0A
:1007B000A0E80C50A0E80C50B1F12001BFF4F7AF55
:1007C000090728BFA0E80C5048BF0CC05DF804EB37
:1007D000890028BF40F8042B08BF704748BF20F8A5
:1007E000022B11F0804F18BF00F8012B704700005A
:1007F0004FF0013C50F8042B51F8043B9A4221D1B0
:10080000A2EB0C03934313EACC1317D150F8042B3B
:1008100051F8043B9A4215D1A2EB0C03934313EA1F
:10082000CC130BD150F8042B51F8043B9A4209D158
:10083000A2EB0C03934313EACC13DBD04FF0000080
:10084000704700BFD01A01BAB1FA81F101F0180166
:1008500022FA01F0CB40C1F12001DBB2C0B2C01AD4
:100860002CFA01F3D11A914311EAC311E6D1704772
:1008700070477047704710B500F07AF8203010BD0F
:100880002DE9F0470D4699469246044600F12408AA
:100890000168880604D5E06921F01001216000E0BC
:1008A0000120A84201DD471B00E00027A1697A1959
:1008B00002EB0900081AA0612078C00602D4204685
:1008C000AFF30080002608E0D4E901211AF8060001
:1008D0009047206A401C761C20624E45F4DB20784D
:1008E000C0060AD52046AFF3008006E0D4E9012116
:1008F00030209047206A401C2062381EA7F1010773
:10090000F4DC07E0D4E9012118F805009047206ADB
:10091000401C2062281EA5F10105F3DC2046AFF340
:1009200000802078000602D50220BDE8F087012073
:10093000FBE7000001694A1C02610878704700B5B6
:100940008FB0CDE901310021059105497944CDE908
:10095000031011466846FFF7A7FD0FB000BD000069
:10096000E5FFFFFF0A6802F8010B0A60704700000C
:1009700000487047E02100207546FFF7F9FFAE46BA
:1009800005006946534620F00700854618B020B59B
:10099000FFF75CFCBDE820404FF000064FF0000779
:1009A0004FF000084FF0000B21F00701AC46ACE817
:1009B000C009ACE8C009ACE8C009ACE8C0098D4684
:1009C000704710B50446AFF300802046BDE81040E4
:1009D000FFF727BC01491820ABBEFEE72600020046
:1009E000704710B500F1280151E8002F12B9BFF38C
:1009F0002F8F04E0531E41E8003404B1F4E782B1C4
:100A00002C3001210AE0821CD2E84F3FC2E8441F8B
:100A100004B1F9E71A0608BF10BD083000680028C5
:100A2000F1D1002010BD10B584465CF8303F8BB189
:100A3000CA784FF0000E05E01C46DB7893420ED2D8
:100A40006368A646002BF7D10022C1E9012E00F110
:100A50002C0208E00022C1E90122C16209E0C1E9DB
:100A6000014E04F10802BEF1000F116018BF0EF133
:100A7000040CCCF80010283050E8001F4A1C40E855
:100A8000002303B1F8E710BDD1E90123002A0EBF0E
:100A9000C36293608B68191D002B08BF00F1300101
:100AA0000A60704701480068704700BF10E000E02E
:100AB00007480178012905D10021017005484FF050
:100AC000806101600448016841F0010101607047E4
:100AD0004022002004ED00E010E000E04FF0FF3085
:100AE0007047000040B10B490968B1FBF0F0411EAE
:100AF0000020B0EB116F02D04FF0FF307047064A74
:100B0000FF231370054A0623136051600449906067
:100B1000087070479418002023ED00E010E000E01A
:100B20004022002010B500F1280402F001039007D4
:100B30000FD4C3B954E8000F084203D1BFF32F8F7D
:100B4000002005E020EA010244E8002303B1F1E7B8
:100B500010BD2068002B00EA010215D1002A18BF41
:100B600010BD002010BD54E8000F00EA01028A42C7
:100B700003D0BFF32F8F002005E020EA010244E8F4
:100B8000002303B1EFE710BD8A4218BF002010BD5B
:100B900080B5124A4FF0000E02F1440C624606E0A6
:100BA0001A6991420BD3891A03F10C029E4613680D
:100BB000002BF5D10022C0E902E2016106E0C0E9A4
:100BC00002E3016198601A69511A1961BEF1000FC0
:100BD00018BF0EF10C0CCCF8000080BD3C190020B1
:100BE000C16839B102690B691A440A6150F8082FCB
:100BF0008A6000E008300068044A00F10C03002815
:100C000008BF02F144031960704700BF3C1900207F
:100C1000EFF3058129B9EFF3108111B9EFF31181D9
:100C200011B16FF005007047DFF804C000DF7047B6
:100C300081190008EFF3058048B9EFF3108030B94F
:100C4000EFF3118018B9EFF31480C00702D1044804
:100C5000007A7047DFF804C000DF7047951900087C
:100C60003C190020EFF3058028B9EFF3108010B98C
:100C7000EFF3118010B10348C0687047DFF808C077
:100C800000DF70473C190020A1190008EFF3058030
:100C900028B9EFF3108010B9EFF3118010B10348B9
:100CA00040687047DFF808C000DF7047987D000893
:100CB000AD19000880B500F0F1F8EFF3058028B910
:100CC000EFF3108010B9EFF3118010B16FF0050051
:100CD00080BDDFF808C000DF80BD00BFB919000883
:100CE000EFF3058028B9EFF3108010B9EFF311800E
:100CF00010B16FF005007047DFF804C000DF7047E7
:100D00000D1B0008F8B50546EFF3058014460E46A6
:100D100028B9EFF3108010B9EFF31180F0B16FF044
:100D200003000DB303BBFEB12978FA291CD1284674
:100D3000FFF757FE78B16A6A074600F10C013046AA
:100D4000FFF795FC0CB1F87820703846FD6000F094
:100D500057FA002008E06FF0020005E0DFF80CC051
:100D600028463146224600DF01B0F0BD951B000841
:100D7000EFF305832BB9EFF3108313B9EFF311836E
:100D80000BB100207047DFF808C000DF704700BFDC
:100D9000791C00082DE9F0410646EFF305809046E6
:100DA0000D4628B9EFF3108010B9EFF3118018B396
:100DB0006FF00307EEB1E3B9DDB13078FA2818D14E
:100DC00006F10C0000F0EDF888B1726A04460C30B0
:100DD0002946FFF74CFCF920002720702046A77019
:100DE00084F80380C4E9015600F00AFA01E06FF0CC
:100DF00002073846BDE8F081DFF80CC030462946CE
:100E0000424600DFBDE8F081AD1D0008EFF305822A
:100E10002AB9EFF3108212B9EFF3118212B16FF019
:100E200005007047DFF804C000DF70476D1E000842
:100E3000EFF3058129B9EFF3108111B9EFF31181B7
:100E400011B16FF005007047DFF804C000DF704794
:100E5000FD1E0008EFF3058129B9EFF3108111B9E8
:100E6000EFF3118109B100207047DFF808C000DFFF
:100E7000704700BFC11F0008EFF3058129B9EFF3E8
:100E8000108111B9EFF3118111B16FF005007047B6
:100E9000DFF804C000DF70472D2000087047B0B5B0
:100EA0000023C0B3B9B3032A35D886460F315EF8A4
:100EB000084F21F0070CDEF804102346A4EB0E04C3
:100EC00021F00305641B644505D21C689E46002C76
:100ED000F1D100231FE0D0E9004363444360204484
:100EE00050F8044C9C423EBF08384360DEF80410C2
:100EF0004CEA020059B1DEF8002021F0030141F86C
:100F00000E2071444860CEF800108E4601E0CEF805
:100F100004000EF108031846B0BD80B5002218B3D6
:100F200011B300F10803A1F1080C4FF0000E634566
:100F300006D01A461B689646002BF8D1002213E013
:100F400051F8043C4268BEF1000F23F00303A2EB0A
:100F5000030242604FF0010219BFDCF80000CEF836
:100F60000000002041F8040C104680BD08B1420783
:100F700002D000221046704700221829FAD311F03F
:100F80000703F7D11022C0E900120144A1F10803C0
:100F90008360002341F8083C81684A600122C360F5
:100FA000E8E710B5B8B100F11402014652E8000FAD
:100FB00010B9BFF32F8F04E0036842E8003404B196
:100FC000F4E740B1043151E8002F531C41E80034EC
:100FD00004B1F8E710BD002010BDF8B1C2688A4224
:100FE0001CD802698A4219D9B0B500F11402043044
:100FF00013680B60BFF35F8F52E8003F0C689C42A0
:10100000F6D142E8001505B1F2E750E8001F4A1E8C
:1010100040E8002303B1F8E70020B0BD6FF0030003
:10102000704784460020BCF1000F18BF002921D072
:1010300002B3FBB180B54FF0000E02FB0130CCE9EA
:10104000001ECCE90223CCE90403481EC1F1010EC5
:10105000194600FB02FC04E088180EF1010E08603E
:101060000146BEF1000FF7D1002043F80C0001202B
:10107000BDE880407047F8B50446807868B3E568FD
:1010800021462846FFF700FD002005F10C06214609
:1010900020703046FFF7A1FFA868E8B13046FFF79F
:1010A00080FFC8B10446284600F0F8F9002100226C
:1010B0000646002700F0ACFA304600F04BFA816893
:1010C0006A6A064604F10C00FFF7D1FAF920207095
:1010D000A770F068E07025E0F8BDA568A86808B3BF
:1010E000407883281ED1284600F0D8F9002100223C
:1010F0000646002700F08CFA304600F02BFA064630
:1011000080686A6A04F10C01FFF7B1FAF06808B16F
:10111000E1780170277005F10C002146BDE8F84028
:10112000FFF75BBF28462146BDE8F840FFF77BBCD0
:101130002DE9F041044600274FF0010816E025464E
:101140006469E878000711D52F76A86870B1284641
:1011500000F0A4F900210022064600F059FAEE60E2
:10116000F06AC5E90470F56285F81880002CE6D1B4
:10117000BDE8F08170B5214C04F1560504F15A0622
:1011800028E0D6E85F1F4A1C904200D80022C6E83B
:10119000532F03B1F5E788B2E16D51F82000002824
:1011A00027D00178F139082914D8DFE801F00513B8
:1011B0000813130B0E131100216E88470AE0616EAD
:1011C000884707E0A16E884704E0E16E884701E0A8
:1011D000216F8847B4F85400D5E85F1F11B9BFF3F9
:1011E0002F8F04E04A1EC5E8532F03B1F4E709042A
:1011F000C7D10020BDE8704000F0F8B83C190020CD
:1012000070B501461948B0F8542000F15603D3E8F0
:101210005F4FA24202D8BFF32F8F04E0651CC3E8E2
:10122000565F06B1F3E7A3B293421AD200F1580316
:10123000D3E85F4F651CAA4200D80025C3E8565F7B
:1012400006B1F5E7C36DA2B243F82210417A002936
:1012500019BF0121817206484FF0805108BF01601B
:1012600070BD0220BDE8704006F042BB3C19002072
:1012700004ED00E010B58168B1B100F10C01D1E8D6
:101280005F2F12B9BFF32F8F04E0531EC1E8543F04
:1012900004B1F4E7110407D000F000F900210022A6
:1012A000BDE8104000F0B4B910BD0000012141704C
:1012B0000B4990F920C01C310A46896841B191F967
:1012C00020306345F8DCC0E902120C31906004E084
:1012D0000021C0E9021202F108010860704700BF56
:1012E0003C19002010B54A1C11D01F4A002402F1FD
:1012F0002C0C624603E0891A03F110021C461368A5
:10130000E3B1DA699142F6D24FF0010E18E01649C6
:10131000002301F1300421461A460B6803F1100145
:10132000002BF9D14FF0FF31002AC1614FF00001CD
:10133000C0E9041216D002F1100413E04FF0000EC1
:10134000002CC0E90434C16118BF04F1100CBEF1D7
:10135000000FCCF8000008BF10BDDA6903F11404D7
:10136000511AD961206010BD3C190020C269016981
:10137000531C07D099B1CB691A44CA6150F8142F95
:101380004A610DE009B142694A614269002A07BF1A
:10139000084801631161002118BF41617047143092
:1013A0000268002A07BF0348C1621161002118BF0B
:1013B000016070473C190020B0B50B4DEC6A1CB1C0
:1013C000E0690138E06100D0B0BD204600F085F84A
:1013D000204600F0B5F8246924B1E0690028F4D073
:1013E00000206061EC62B0BD3C190020B0B505463C
:1013F0001448002D4469017A0CD0022905D194F9D2
:10140000200095F92010814212DC2846BDE8B0404A
:1014100000F096B8022913D1456A8DB194F92000E5
:1014200095F920108142D8BFB0BD284600F055F88C
:101430002046FFF73BFF2846BDE8B04000F0C2B8A9
:10144000B0BD00BF3C19002010B50446002020802C
:10145000A07881070CD5216BC00604D40E48406FDC
:10146000FFF75BFD04E00C48D0F88400FFF7B5FD02
:10147000A078C00708BF10BD0749D1F8880020B187
:101480002146BDE81040FFF7A8BDD1F880002146F5
:10149000BDE81040FFF741BD3C19002001468068BF
:1014A0008268002A8A6000D0D1600021C160704744
:1014B00091F920C00246806840B190F92030634520
:1014C000F8DAC1E902020C30916004E00020C1E9C1
:1014D000020202F1080001607047C16831B1826800
:1014E0008A60826802B1D1600021C1607047B0B5E6
:1014F0000446054603E02878F12803D1ED68002D65
:10150000F9D1B0BD2046FFF7E8FF28462146BDE8E7
:10151000B040FFF7CDBF10B504464078332818BF60
:1015200010BD94F82320616A2046FFF7FBFA30B122
:10153000014620460022BDE8104000F069B810BD09
:1015400001460120487002481C30FFF7B1BF00BFC0
:101550003C190020806B203070470000074841692B
:1015600039B1086B8A6B824204D90068044A904200
:1015700000D17047012006F0BBB900BF3C19002024
:10158000A52E5AE270B50B4C0B480021A26D666E79
:1015900000F000FF094D002EA86209D0E26D084856
:1015A000002100F0F7FE0028A86418BF012070BDDC
:1015B000012070BD987D0008117900083C190020B9
:1015C000A51600080221417001498861FFF7C6BFD6
:1015D0003C19002010B50D4C02460020237A022B46
:1015E00012D1636A83B160694270FFF77BFE606A63
:1015F00081680029616202D004F11C02CA600021E6
:10160000C160FFF7DFFF012010BD00BF3C190020C3
:10161000B0B50446806B154601622046FFF7A6FE72
:1016200020461DB1BDE8B040FFF7E0BEBDE8B040C8
:10163000FFF786BFB0B5FFF735FA194DE968286D99
:1016400001310028E96000D08047FFF7B5FE002097
:10165000FFF7CCFE296C11B3AA69A86B90421CBF9E
:10166000C5E90E21B0BDE96B11B10139E96316D1AD
:10167000297A022913D16C6A8CB190F8200094F871
:10168000201081420BD12046FFF727FFA86BFFF700
:1016900057FF2046FFF796FF286CC5E90E40B0BD06
:1016A0003C19002082B00B480821D0E91820FFF730
:1016B0005FFB094D09496C46C5E91301214600222B
:1016C0004FF0FF33FFF71EFB10B9DDE9001088472C
:1016D000E86CF3E7987D00083C190020E11600084B
:1016E00070B5144D6C6C1CB3206901260138206163
:1016F0001CE02069E0B9E06808B1A1688160686415
:1017000004F1180100220023E86CFFF743FB18B135
:101710000320214606F0ECF8E078012804D1616945
:101720002046FFF735FA00E066706C6C002CE0D1C3
:1017300070BD00BF3C190020EFF305822AB9EFF31A
:10174000108212B9EFF31182CAB16FF00302A0B197
:1017500099B90178F62910D10C30D0E85F1F11B982
:10176000BFF32F8F04E04A1EC0E8532F03B1F4E704
:101770000022080408BF6FF0020210467047DFF82D
:1017800008C000DF704700BFE1200008EFF30581CB
:1017900029B9EFF3108111B9EFF3118111B16FF095
:1017A00005007047DFF804C000DF704739210008EA
:1017B000EFF305832BB9EFF3108313B9EFF3118324
:1017C0000BB100207047DFF808C000DF704700BF92
:1017D00099210008EFF3058129B9EFF3108111B9C0
:1017E000EFF3118109B3B0B5E0B10178F62919D151
:1017F000C28900F10C01D1E85F3F9A4202D8BFF3E1
:101800002F8F04E05C1CC1E8554F05B1F3E7C28996
:1018100099B2914224BF6FF00200B0BDFFF7F0FC17
:101820000020B0BD6FF00300B0BDDFF808C000DFDE
:10183000704700BF19220008DFF804C000DFFEE790
:101840006D220008EFF305822AB9EFF3108212B976
:10185000EFF31182E2B1B0B56FF00304B0B100292B
:1018600014DB0278F12A11D14278042A02D16FF0F8
:1018700002040BE000F1280252E8003F43EA0104B1
:1018800042E8004505B1F7E7FFF7BAFC2046B0BDD6
:10189000DFF804C000DF7047E1220008EFF30583A2
:1018A0002BB9EFF3108313B9EFF3118313B16FF07A
:1018B00005007047DFF804C000DF704749230008C7
:1018C000EFF305832BB9EFF3108313B9EFF3118313
:1018D0000BB100207047DFF808C000DF704700BF81
:1018E00095230008EFF3058129B9EFF3108111B9B1
:1018F000EFF3118111B16FF005007047DFF804C0FC
:1019000000DF704771250008EFF3058CBCF1000F74
:1019100009D1EFF3108CBCF1000F04D1EFF3118C5F
:10192000BCF1000F01D000207047DFF808C000DFD5
:10193000704700BF35260008EFF305822AB9EFF3A0
:10194000108212B9EFF3118212B16FF005007047E7
:10195000DFF804C000DF7047B1260008EFF305810F
:1019600029B9EFF3108111B9EFF3118111B16FF0C3
:1019700005007047DFF804C000DF7047FD2600084F
:1019800030B180B501461320FFF724FEBDE880404A
:10199000002070470148007A704700BF3C190020C2
:1019A0000148C068704700BF3C19002001484068EA
:1019B000704700BF987D00082DE9F843504F387AF2
:1019C000012800F09580002840F0948007F108007D
:1019D0009C21FEF7E5FEDFF82C81B8F81000A7F88F
:1019E0005400D8E90202D8E90B41FA653864204670
:1019F000FFF7BCFA08B1C7F88040D8E90541DFF825
:101A00000891D8E907562046C847D7F88010002823
:101A1000284618BF214679673146C847D7F8801055
:101A2000002818BF2946B967D8E909412046C847A8
:101A3000D7F88010002818BF2146D8F83440F9673D
:101A40003CB12168D4E902232046FFF7EAFAC7F83F
:101A50008440D8F838403CB12168D4E902232046BC
:101A6000FFF7DFFAC7F88840D8F83C403CB121685E
:101A7000D4E902232046FFF7D4FAC7F88C40D8F8FF
:101A800040403CB12168D4E902232046FFF7C9FA5F
:101A9000C7F89040D8F844403CB12168D4E902230B
:101AA0002046FFF7BEFAC7F89440D8F848403CB14A
:101AB0002168D4E902232046FFF7B3FAC7F898401B
:101AC000D8F84C403CB12168D4E902232046FFF706
:101AD000A8FAC7F89C40D8F850403CB12168D4E936
:101AE00002232046FFF79DFAC7F8A0400120387274
:101AF000002001E04FF0FF3001B0BDE8F08300BFEF
:101B00003C190020987D00086D0F0008B0B51D4CF1
:101B1000207A01281CD1FFF735FDC8B11A48FF21F2
:101B20001A4D8175817D026881F0FF01C2F30222A6
:101B3000B1FA81F1C1F120018A4228BF511CFE2275
:101B400002FA01F1C17468681149FEF7CBFF10B1C8
:101B50004FF0FF30B0BDFEF7C1FF2061FEF7A8FFD8
:101B600004F11C00FFF79AFCFFF72CFD2878C00752
:101B70000CBF0320022080F3148802202072002072
:101B8000B0BD00BF3C1900200CED00E0987D0008BE
:101B9000ED0200082DE9F84300284DD00F466FF004
:101BA000030500294AD004460078FA2846D1204689
:101BB00099469046FEF715FF002843D0064620467A
:101BC0003146FEF761FF626A06F10C013846FEF706
:101BD0004EFDB8F1000F04F10C074FF0000531463F
:101BE0001CBFF07888F8000035703846FFF7F5F92B
:101BF000A06818B33846FFF7D4F90025F0B10646BF
:101C00002046FFF74BFC002101220746FFF700FDAD
:101C10003846FFF79FFC8168626A074606F10C00B0
:101C2000FEF725FDF92031463070B570F868F07088
:101C30002046FEF7F8FE01E06FF00305284601B0EC
:101C4000BDE8F083B9F1000F10D083204946FFF7BB
:101C5000C1FC40B1074841692046FFF729FCEFF37A
:101C60000980C0E902786FF00105E7E76FF002052F
:101C7000E4E700BF3C1900202DE9F84F002770B1C0
:101C80000D4661B105F10F010446B0FA80F021F074
:101C90000306B6FA86F10844202804D20027384605
:101CA00001B0BDE8F08F06FB04F872B1D2F808A0CD
:101CB0001368D2E90490BAF1000F11D05FEA8A717B
:101CC000ECD1D1683429E9D30DE000234FF00009AD
:101CD00034490093D1F8A00078B1FFF762F912E01F
:101CE000D1680029DAD1B9F1000F2FD00027404583
:101CF000D5D319F003002BD0D1E7D1F880003421DF
:101D00000122FFF7CCF882464FF0010BB9F1000F2A
:101D100010D1BAF1000F0DD0224F41460022F86FCA
:101D2000FFF7BDF8814638B148464146FEF716FD3B
:101D300057461AE057461AE0BBF1000F14D0D7F807
:101D4000A00060B15146FFF748F90DE00028A5D189
:101D5000BAF1000FBCD000934FF0000BD6E7D7F8D4
:101D600080005146FFF7D9F800270BF1020B002F36
:101D70003FF495AFFA20009987F802B032464B46FF
:101D800038700020C7E90110C7E90950C7E90B0006
:101D900007F10C002146FFF744F9024802490167A8
:101DA0007DE700BF3C190020771000082DE9F843BB
:101DB00038B30E466FF00307002951D0054600786E
:101DC000FA284DD1A86899469046E8B14078832812
:101DD0001AD12846FFF762FB0021012204460027A2
:101DE000FFF716FC2046FFF7B5FB044680686A6AD9
:101DF0003146FEF73CFCE06890B380F80080002795
:101E00002EE06FF003072BE005F10C00FFF7C9F897
:101E100080B16A6A04460C303146FEF728FCF9208E
:101E20000027214620702846A77084F80380FEF71B
:101E3000FAFD15E0B9F1000F10D093204946FFF7E5
:101E4000C9FB40B1084841692846FFF731FBEFF371
:101E50000980C0E902686FF0010701E06FF0020736
:101E6000384601B0BDE8F0833C19002070B5044647
:101E7000214845694DB32CB32078F52822D1207E26
:101E800030B30E46E178CA0702D0E268AA422CD0ED
:101E90007EB388070AD5E06895F9201090F92020D4
:101EA0008A4203DA80F82010FFF721FB53203146E5
:101EB000FFF790FB18B120462946FFF7F9FA6FF0BB
:101EC000010070BD6FF0030070BD4FF0FF3070BDBA
:101ED000E5600021E86A0028C4E9041000D004612C
:101EE000EC6201202076002070BDFF2801D0013077
:101EF000F8E76FF0020070BD3C19002010B5002813
:101F000052D004460078F5284ED1207EF0B3D4F8A4
:101F100014C0E068BCF1000F00F12C031CBF226963
:101F2000CCF8102021691A46002918BF01F11402CB
:101F3000C2F800C0E178890722D590F821C00BE0F3
:101F400093683BB193F920304FFA8CF18B42C8BFB4
:101F50005FFA83FC02F114031A68002AF0D190F8AA
:101F6000201061450CD080F820C0FFF7C0FA07E0D0
:101F70002046FFF793FA6FF002010022FFF748FBBB
:101F8000A0680028F4D10020FFF730FA002020706C
:101F9000A178C90708BF10BD0849D1F8940030B135
:101FA0002146FFF71AF807E06FF0030010BDD1F8E3
:101FB00080002146FEF7B1FF002010BD3C19002033
:101FC00070B558B1D0E90065846884B1A10711D11A
:101FD000C16800201C2938BF70BD16E0002500260E
:101FE0001149D1F8940038B1FEF7DBFF0AE0C06870
:101FF0000028F5D0002070BDD1F880001C210122FE
:10200000FEF74DFF044658B10120A070F5201121C4
:10201000207004F10800E5706660FEF7C1FB00E087
:102020000024204670BD00BF3C19002070B5044656
:102030002A48406970B154B12178F52907D1217E31
:1020400011B1E268824209D06FF0020404E06FF03F
:10205000030401E04FF0FF34204670BD01392176C2
:10206000090601D00024F7E7616909B122690A6114
:10207000236900F12C052A46002B18BF03F1140236
:102080001160E178890711D590F8211009E0936873
:102090002BB193F920304DB2AB42C8BF194602F1C3
:1020A00014052A68002AF2D180F82010A06878B1BF
:1020B0002046FFF7F3F90021002205460026FFF72E
:1020C000A7FAE560E86AC4E904600120EC622076C2
:1020D00000200024FFF78AF9BEE700BF3C1900206A
:1020E000B0B508B304460078F6281DD104F10C0001
:1020F000D0E85F2F12B9BFF32F8F04E0531EC0E862
:10210000553F05B1F4E710041CBF0020B0BD71B10C
:102110006320FFF75FFA20B1064841692046FFF7C8
:10212000C7F96FF00100B0BD6FF00300B0BD6FF0F4
:102130000200B0BD3C19002010B508B30446007879
:10214000F6281DD1A06868B12046FFF7A7F96FF007
:1021500002010022FFF75CFAA0680028F4D10020F9
:10216000FFF744F900202070A178C90708BF10BD0F
:102170000849D1F8980030B12146FEF72EFF07E05C
:102180006FF0030010BDD1F880002146FEF7C5FEB8
:10219000002010BD3C19002070B5044601384FF6F0
:1021A000FE730D460021984298BFA54201D908460A
:1021B00070BD4AB19068166870B181070FD1D268BE
:1021C0000021102AF3D314E000261149D1F8980019
:1021D00038B1FEF7E6FE0AE0D0680028F5D000210D
:1021E000E5E7D1F8800010210122FEF758FE60B12A
:1021F00001218170F621074A01700021C0E90161C7
:1022000003498581C4818A6600E000200146CEE74B
:102210003C19002075120008B0B560B10178F629AC
:1022200009D1816859B1FFF739F900210122002451
:10223000FFF7EEF901E06FF003042046B0BDC2895C
:1022400000F10C01D1E85F3F9A4202D8BFF32F8F13
:1022500004E05C1CC1E8554F05B1F3E7C2896FF09B
:10226000020099B2914238BF0020B0BD70B51B4D3D
:10227000287A022831D1686A002808BF70BD6C69CD
:10228000E06AFEF755FFA06918B100210022FFF7B0
:10229000BFF9EFF30980A063686A81680029696269
:1022A00002D005F11C02CA600026C660FFF78AF959
:1022B0006E61E078C00701D0A06920B12046BDE87A
:1022C0007040FFF7C1B80020E06004206070686BC8
:1022D0000028A06000D0C4606C6370BD3C19002071
:1022E000B0B56FF0030460B300292ADB054600781F
:1022F000F12826D16878042802D16FF0020420E08A
:1023000005F1280050E8002F42EA010440E80043AC
:1023100003B1F7E76878332813D195F82320696A69
:102320002846FEF7FFFB60B1014695F82300012225
:102330000C4680075CBF686A21EA00042846FFF764
:1023400067F92046B0BD0000F8B50546104847695A
:10235000A7B1002D15DB0E461446384629463246F5
:10236000FEF7E0FB90B97CB13320214687F823606B
:102370007D62FFF72FF96FF0010007E04FF0FF30AB
:1023800004E06FF0030001E06FF0020001B0F0BD67
:102390003C1900202DE9FE4F10B380466AB102F1CE
:1023A000100A9AE88006D2E900539668B6B1B007E1
:1023B00016D1D068442813D317E04FF0180A002331
:1023C00000274FF000090025644A0293D2F88800E4
:1023D000CDE90015C8B1FEF7E4FD1CE0D06820B1DE
:1023E0000024204603B0BDE8F08F37B10024B9F1D6
:1023F000000FF6D017F00700F3D1BAF1000F38D074
:10240000AAF101003728EBD835E0D2F8800044214A
:102410000122FEF744FD06464FF0010B67B95EB19D
:10242000B9F1000F0AD04D4849460022406FFEF72F
:1024300036FD98B107460FE034463EE0474848492C
:10244000D0F88400D1F854900028ECD0FEF7A9FD14
:1024500020B107460BF1100B34462CE0BBF1000F06
:102460001CD03E49D1F88800E0B13146FEF7B5FDF9
:102470001DE04FF0180AB9F1000F06D00024B9F1A1
:10248000480FAED319F00700ABD1002E3FF49CAF3C
:10249000CDE9001502934FF0000BBFE74FF0000BA2
:1024A000002707E0D1F880003146FEF736FD00270F
:1024B0004FF0010B00244BF0020B002C3FF491AFC6
:1024C00040F2F11084F802B0182120800298E070E8
:1024D0000198606004F10800FEF762F907EB09015A
:1024E000FD2084F821A084F820A084F82200002098
:1024F000403984F82F00C4F82B00C4F82700C4F832
:102500002300C4E90C79C4E90E181649009E39600D
:102510001349097849070AD511213A1D4FF0CC33E8
:10252000A1EB990101E008C201310029FBD1A16BA7
:10253000002202E041F8220001320D2AFAD10A48B5
:102540004FF08072C1E90D08CA630E620348074963
:1025500001662046FEF74AFF43E700BF3C19002012
:10256000987D0008A52E5AE23918000817150008B2
:1025700070B5C8B104460078F12815D1607800F034
:102580000F00012813D0032815D002281CBF6FF0BC
:10259000020070BD26496FF002000A7A022A18BFB5
:1025A00070BD496A69B970BD6FF0030070BD204607
:1025B000FEF793FF05E02046FEF78FFF2046FEF76B
:1025C000D5FEE06AFEF7B4FDA06918B10021002233
:1025D000FFF71EF86078022811D1EFF30980144D3F
:1025E000A063686A81680029696202D005F11C0253
:1025F000CA600026C660FEF7E5FF6E6102E00020BB
:10260000FEF7F4FEE078C00701D0A06920B12046B3
:10261000FEF71AFF002070BD0020E060042060700B
:102620000348416B0029A16000D0CC604463F1E70E
:102630003C190020F8B50E46002198B3012E31D880
:10264000144605464BB198681F6870B181070FD1D9
:10265000DA680021202A15D224E000271349D1F896
:102660008C0038B1FEF79DFC0AE0D8680028F5D050
:10267000002117E0D1F8800020210122FEF70FFC95
:1026800070B1012181704FF4F97101800021C67091
:10269000C0E90171C0E90311C0E90515C46100E09A
:1026A00000200146084601B0F0BD00BF3C190020E3
:1026B000B0B578B105460C466FF00300C1B129787A
:1026C000F22918BFB0BD6878022806D12846FEF767
:1026D00087FA08E06FF00300B0BD0748006D40B115
:1026E00002206C61687028462146FEF751FA0020EE
:1026F000B0BD6FF00200B0BD3C19002078B1017888
:10270000F2290CD1417802291CBF6FF002007047FA
:1027100080B501214170FEF763FA002080BD6FF0A3
:102720000300704700A07047303630303031000071
:102730007047000010B50548006800F00F0403481A
:1027400044602046FFF7F4FF10BD00000000024087
:102750007047000010B505480068C0F3031420015D
:10276000024948602046FFF7F3FF10BD0000024019
:102770007047000010B505480068C0F3032420022C
:10278000024948602046FFF7F3FF10BD00000240F9
:102790007047000010B505480068C0F303342003FB
:1027A000024948602046FFF7F3FF10BD00000240D9
:1027B0007047000010B505480068C0F303442004CA
:1027C000024948602046FFF7F3FF10BD00000240B9
:1027D0007047000010B505480068C0F30354200599
:1027E000024948602046FFF7F3FF10BD0000024099
:1027F0007047000010B505480068C0F30364200668
:10280000024948602046FFF7F3FF10BD0000024078
:102810007047000010B50548006800F00F04034839
:10282000001D04602046FFF7F3FF10BD00040240C6
:102830007047000010B506480068C0F3031420017B
:102840000349091D08602046FFF7F2FF10BD000094
:10285000000402407047000010B506480068C0F34D
:10286000032420020349091D08602046FFF7F2FFF8
:1028700010BD00000004024010B50C480068C0F311
:10288000033434B120030949091D0860204600F0D3
:102890000FF806480068C0F3034434B1200403492C
:1028A000091D0860204600F004F810BD0004024035
:1028B0007047704708B502E0684600F077FBFBE719
:1028C00018B5002844D0C0F34211C0F30322214BB5
:1028D0009B6903F001032BB91E4B9B6943F0010375
:1028E0001C4CA36100F48053A3B11B4BDB69009324
:1028F00000F01F0301FA03F3009C9C43009400F0D6
:102900001F0302FA03F3009C23430093124C009B25
:10291000E3611DE0104B5B68009300F01F0301FAB8
:1029200003F3009C9C43009400F01F0302FA03F39E
:10293000009C2343009307210022009B23EA0163AC
:102940000093009B43EA02630093034C009B636087
:1029500018BD0000001002400000014001461D4863
:10296000814204D11C488069C0F3800070471B4835
:10297000814204D118488069C0F3C000F6E71848C6
:10298000814204D114488069C0F30010EEE7154875
:10299000814204D110488069C0F34010E6E7124834
:1029A000814204D10C488069C0F38010DEE70F48F3
:1029B000814204D108488069C0F3C010D6E70C48B2
:1029C000814204D104488069C0F30020CEE7002092
:1029D000CCE700000008014000100240000C01405C
:1029E000001001400014014000180140001C01408B
:1029F000002001402DE9F04102460025002600207C
:102A000000230024002791F803C00CF00F0591F873
:102A100003C00CF0100CBCF1000F03D091F802C001
:102A20004CEA050591F800C0BCF1000F31D01468E4
:102A300000202BE04FF0010C0CFA00F3B1F800C0BD
:102A40000CEA03069E4220D183004FF00F0C0CFAD3
:102A500003F7BC4305FA03FC4CEA040491F803C0F5
:102A6000BCF1280F06D14FF0010C0CFA00FCC2F8A3
:102A700014C00AE091F803C0BCF1480F05D14FF033
:102A8000010C0CFA00FCC2F810C0401C0828D1D37D
:102A90001460B1F800C0BCF1FF0F34DD54680020B1
:102AA0002EE000F1080C4FF0010808FA0CF3B1F821
:102AB00000C00CEA03069E4221D183004FF00F0CA8
:102AC0000CFA03F7BC4305FA03FC4CEA040491F842
:102AD00003C0BCF1280F05D100F1080C08FA0CF86E
:102AE000C2F8148091F803C0BCF1480F07D100F17F
:102AF000080C4FF0010808FA0CF8C2F81080401CCE
:102B00000828CED35460BDE8F0812DE9F041054698
:102B10000C46174698460F2C02D90020BDE8F081DC
:102B20002846FFF71BFF18B90121284600F02AF8B4
:102B3000B8F1000F10D1022F05D1E8680121A140A2
:102B40008843E86008E0032F06D127F00107E86812
:102B50000121A1400843E860082C01D22E4601E083
:102B6000083C2E1D3068A2000F2191408843306040
:102B700048EA8700A100884031680843306001209E
:102B8000CCE70000002945D0454A904206D1454A8D
:102B9000926942F00402434B9A6180E0424A9042BB
:102BA00006D1404A926942F008023E4B9A6176E0B3
:102BB0003E4A904206D13B4A926942F01002394B9C
:102BC0009A616CE03A4A904206D1364A926942F0E4
:102BD0002002344B9A6162E0364A904206D1314A73
:102BE000926942F040022F4B9A6158E0324A90427B
:102BF00006D12C4A926942F080022A4B9A614EE03B
:102C00002E4A90424BD1274A926942F48072254B5A
:102C10009A6144E0224A904206D1224A926922F007
:102C20000402204B9A613AE01F4A904206D11D4AA5
:102C3000926922F008021B4B9A6130E01B4A9042D5
:102C400006D1184A926922F01002164B9A6126E0CA
:102C5000174A904206D1134A926922F02002114B82
:102C60009A611CE0134A904206D10E4A926922F002
:102C700040020C4B9A6112E00F4A904206D1094A79
:102C8000926922F08002074B9A6108E00B4A904259
:102C900005D1044A926922F48072024B9A6170470E
:102CA0000008014000100240000C014000100140EB
:102CB0000014014000180140001C014000200140A8
:102CC0000246002093680B400BB1012000E0002079
:102CD0007047416170470161704738B5044620462E
:102CE00001F009FB00BF14208DF8030003208DF8CC
:102CF0000200A088ADF8000069462068FFF77AFE60
:102D000000BF00BFA189A068FFF7E5FF00BF00BFBB
:102D1000A1882068FFF7DFFF00BF38BD2DE9F84329
:102D200004460D4600274FF0010800263DE000BF95
:102D3000A189A068FFF7CDFF00BF00BF002000E021
:102D4000401CC828FCDB00BF05F0800030B100BF8C
:102D5000A1882068FFF7BFFF00BF06E000BFA18881
:102D60002068FFF7B6FF00BF00BF6806050E00BF72
:102D7000A189A068FFF7AFFF00BF00BF002000E0FF
:102D8000401CC828FCDB00BF204601F0A7FA00BFAA
:102D900000BF00BFA189A068FFF792FF0028F9D00B
:102DA00000BF204601F0A7FA761C082EBFDB00BF4B
:102DB000A189A068FFF78DFF00BF00BF002000E0E1
:102DC000401CC828FCDB00BF00BFA1882068FFF7BB
:102DD00082FF00BF00BF002000E0401CC828FCDBD1
:102DE00000BF00BFA189A068FFF775FF00BF00BF4B
:102DF000002000E0401CC828FCDB00BF00BF4820CA
:102E00008DF80300A088ADF8000069462068FFF740
:102E1000F1FD00BF06E0781C0746C82802DB4FF032
:102E2000000806E000BFA1882068FFF749FF0028DE
:102E3000F1D100BF00BF14208DF8030003208DF8EE
:102E40000200A088ADF8000069462068FFF7D2FDB7
:102E500000BF00BFA189A068FFF73BFF00BF00BF14
:102E6000002000E0401CC828FCDB00BF4046BDE855
:102E7000F88310B5044600BFA1882068FFF72BFF38
:102E800000BF00BFA189A068FFF725FF00BF00BFFA
:102E9000002000E0401CC828FCDB00BF204601F0F9
:102EA0001DFA00BF00BF00BFA189A068FFF708FF9F
:102EB0000028F9D000BF204601F01DFA00BFA1880C
:102EC0002068FFF706FF00BF00BF002000E0401CA5
:102ED000C828FCDB00BF00BFA189A068FFF7F9FE8E
:102EE00000BF00BF002000E0401CC828FCDB00BF82
:102EF00010BD10B5044600BFA1882068FFF7E9FEA9
:102F000000BF00BF002000E0401CC828FCDB00BF61
:102F100000BFA189A068FFF7DEFE00BF204601F0D8
:102F2000DDF900BF00BF00BFA189A068FFF7C8FEA0
:102F30000028F9D000BF00BF002000E0401CC828D6
:102F4000FCDB00BF00BFA1882068FFF7C4FE00BF04
:102F500000BF002000E0401CC828FCDB00BF10BD03
:102F6000F0B500F00F0201F030010C4E06EB8205C7
:102F7000D5F8003C03F0300585EA010423F0300564
:102F80002C4348F6BF75254045F0800545F40045C3
:102F9000374607EB8206C6F8005CF0BD00500040E3
:102FA00003E04FF4FA70FDF733FEFAE770B505461B
:102FB0004FF400510948FFF783FE04460CB100208E
:102FC00070BD0748FFF755FFA7210548FFF7A6FE8C
:102FD0000348FFF78EFF0120F2E7000000140140D4
:102FE0005818002008B50121302000F0E1FA4820EF
:102FF0008DF8030003208DF802004FF40050ADF867
:10300000000069460B48FFF7F5FC10208DF803001F
:1030100003208DF802004020ADF800006946064804
:10302000FFF7E8FC0548FFF758FE01F0A5F900F0AE
:1030300007F808BD00140140001001405818002096
:1030400010B540210148FFF746FE10BD00100140B9
:1030500008B50121202000F0ABFA10208DF8030004
:1030600003208DF802000120ADF8000069460248F7
:10307000FFF7C0FC08BD00000014014010B504F0CB
:1030800071FB10BDF8B505460F4625E03B48B0F88A
:103090000224511CA0F80214815C0091B0F80214C3
:1030A000C1F30901A0F8021400BFFDF72BF9006875
:1030B0009DF80010405C00F03E0068B12F48B0F869
:1030C0000214491EA0F80214B0F80214C1F3090159
:1030D000A0F8021400BF0BE000BF2848B0F80004BD
:1030E0002649B1F80214401AC0F309000028CDD1D6
:1030F00000BF0024FDF7B6FD064627E000BF1F48CD
:10310000B0F800041D49B1F80214401AC0F30900D8
:10311000A8B11A482919B0F802345A1CA0F80224A0
:10312000C25C0A70B0F80224C2F30902A0F80224BB
:1031300000BF285D00F024F800B909E0641CFDF729
:1031400091FD801B642801D90020F8BDBC42D5DB6D
:1031500000BF0CB90020F8E70848B0F80214491E77
:10316000A0F80214B0F80214C1F30901A0F8021487
:1031700000BF002028550120E7E70000FE190020CD
:103180000146612903DB7A2901DC012070475F29B0
:1031900001D10120FAE70020F8E7000038B5044625
:1031A000FDF760FD054628E000BF1648B0F80004B2
:1031B0001449B1F80214401AC0F30900B0B1114823
:1031C000B0F80224511CA0F80214815C0091B0F800
:1031D0000214C1F30901A0F8021400BF14F8011B86
:1031E0009DF80000814201D0002038BDFDF73AFD76
:1031F000401B642801D90020F7E720780028D3D1AC
:103200000120F2E7FE1900200FB4F0B585B00BA83D
:10321000009028E00A9810F8011B04910A9069298F
:103220000DD0732919D1009820C800902846FDF7C9
:10323000FFF987B23946284604F0B6FA12E0009842
:1032400010C8009022460CA101A8FDF7DBF8064645
:10325000B1B201A804F0A8FA04E0012104A804F026
:10326000A3FA00BF00BF0A9800780028D2D10090CE
:1032700005B0F0BC5DF814FB256400000020704729
:1032800000207047002070470020704700207047E2
:1032900000207047002070470020704700207047D2
:1032A0003EB5FFF73FFA044607A009A10AA3002292
:1032B000CDE9010400910BA10CA0FFF7A5FFFFF7DA
:1032C000DDFE00203EBD000022646174612200002A
:1032D000226F6B2200000000226D657373616765C9
:1032E0002200000022636F64652200007B0A733AAB
:1032F000692C0A733A732C0A733A730A7D00000032
:10330000002070470020704708B506A007A30022E0
:1033100009A100900AA0FFF777FFFFF7AFFE00209A
:1033200008BD0000226F6B2200000000226D657353
:10333000736167652200000022636F6465220000EC
:103340007B0A733A692C0A733A732C0A7D000000D9
:103350000020704710B504A0FFF720FF10B94FF010
:10336000FF3010BD0020FCE726646174613D7B7571
:103370007365725F636F64653A00000000207047F8
:1033800085E01E214248FFF77DFE00B97FE041A1A4
:103390003F48FDF72DFA10B9FFF7B6FF76E040A1E0
:1033A0003B48FDF725FA10B9FFF7AAFF6EE041A1EF
:1033B0003748FDF71DFA10B9FFF772FF66E040A12C
:1033C0003348FDF715FA10B9FFF79CFF5EE03FA107
:1033D0002F48FDF70DFA10B9FFF7BCFF56E03EA1EC
:1033E0002B48FDF705FA10B9FFF7B2FF4EE03EA1FA
:1033F0002748FDF7FDF910B9FFF7C0FF46E03FA1F0
:103400002348FDF7F5F910B9FFF73CFF3EE03EA178
:103410001F48FDF7EDF910B9FFF730FF36E03EA188
:103420001B48FDF7E5F910B9FFF72AFF2EE03DA193
:103430001748FDF7DDF910B9FFF72EFF26E03CA194
:103440001348FDF7D5F910B9FFF728FF1EE03BA19F
:103450000F48FDF7CDF910B9FFF71AFF16E03AA1B2
:103460000B48FDF7C5F910B9FFF714FF0EE039A1BD
:103470000748FDF7BDF910B9FFF708FF06E038A1CE
:103480000348FDF7B5F908B9FFF7FEFE00BF78E77E
:10349000E0190020726561645F73746174650000F7
:1034A000726561645F6465736372697074696F6E7D
:1034B00000000000726561645F6361726400000077
:1034C000726561645F66696E6765720077726974C0
:1034D000655F61646D696E0077726974655F6164D0
:1034E0006472626F6F6B000077726974655F646508
:1034F000736372697074696F6E000000617574683F
:103500005F73656E64657200617574685F72656390
:103510006569766572000000617574685F72656D3B
:103520006F7665006F75747075745F6770730000F7
:103530006F75747075745F6C6F670000636C6561A4
:10354000725F677073000000636C6561725F6C6F1F
:1035500067000000636C6561725F61646D696E0095
:10356000636C6561725F61646472626F6F6B0000AF
:10357000F0B500F00F0201F440510C4E06EB82054D
:10358000D5F8003C03F4405585EA010423F4405586
:103590002C434BF68F75254045F0800545F40045DA
:1035A000374607EB8206C6F8005CF0BD00500040CD
:1035B00029B1064A92690243044B9A6104E0034A26
:1035C00092698243014B9A617047000000100240EB
:1035D00070B504460D46034A2946204600F06CF8B3
:1035E00070BD0000E479000810B5024800F07CFAD4
:1035F00010BD0000E479000808B5024800F078FA30
:10360000009008BDE479000810B5024800F09DFA6A
:1036100010BD0000E479000810B5044602492046B8
:1036200000F097FB10BD0000E479000810B50446D7
:103630000249204600F020FC10BD0000E47900089B
:1036400070B504460D46034A2946204600F0DEFCCC
:1036500070BD0000E479000870B504460D46034AC9
:103660002946204600F01CFD70BD0000E4790008EA
:1036700070B504460D461646034B32462946204691
:1036800000F058FD70BD0000E479000810B5024854
:1036900000F088FD10BD0000E479000801480068D2
:1036A00070470000C879000808B50248006800901B
:1036B00008BD0000C47900082DE9F05F8046894606
:1036C0001446002500260027AB46A06AC07900F00A
:1036D000020010B9681EBDE8F09F08F0FF00142832
:1036E00033D1606A68B12068808820F002002168C8
:1036F0008880616A0868016821F00101016000BFEB
:1037000005E02068808820F0800021688880206A99
:1037100068B12068808820F0010021688880216AD3
:103720000868016821F00101016000BF05E0206820
:10373000808820F04000216888801C21E06AFDF725
:103740002FF80020A16A0871C5E7A06A007910B1BE
:103750006FF00100BFE708F0FF0004281ED007DC6F
:1037600078B101280FD0022812D0032876D112E0B8
:10377000102816D0112842D0122848D01328F5D18D
:103780004AE000BFA6E045F0010547F00407A1E0CC
:1037900045F002059EE06FF006009CE76FF0060022
:1037A00099E7D4F804A0002606E0701C2AFA00F07D
:1037B000484500D802E0761C082EF6D300BF082E3C
:1037C00004D0701C2AFA00F0484502D94FF0FF30AF
:1037D00081E72068008820F0400021680880206888
:1037E000008820F0380040EAC60021680880206880
:1037F000008840F040002168088000206BE7D4E991
:1038000000100988C1F3C201491CC84063E7E16A9E
:10381000A1F8189000205EE7A06A067A012E35D143
:10382000A06A806800F4C016206950B3B6F5002F76
:1038300027D1B9F1000F12D12369012203CB1AB1AC
:1038400001238B40036107E001F110034FF0010CED
:103850000CFA03FCC0F810C000BF15E037E0236984
:10386000002203CB1AB101238B40036107E001F171
:1038700010034FF0010C0CFA03FCC0F810C000BF9D
:1038800002E04FF0FF3026E7002024E7022E1BD194
:10389000A06A806800F40016B6F5002F11D1B9F1C6
:1038A000010F06D12068008840F4807021680880EC
:1038B00005E02068008820F48070216808800020DE
:1038C00009E74FF0FF3006E74FF0FF3003E76FF0F6
:1038D000030000E700BF08F4E060B0F5407F16D0B9
:1038E00007DC68B1B0F5807F0BD0B0F5007F11D157
:1038F0000AE0B0F5806F0ED0B0F5A06F0AD10BE0F2
:103900000DE047F001070AE047F0020707E047F043
:10391000030704E000BF00BF6FF00700DBE600BF55
:1039200008F47C30B0F5004F03D0B0F5803F04D1EF
:1039300000E005E047F4006702E06FF00800CAE627
:1039400000BF08F48020B0F5802F01D147F0800738
:10395000012D5CD108F4C01048B1B0F5002F26D07D
:10396000B0F5801F39D0B0F5C01F4CD10BE02069F5
:1039700028B12269002303CA1A46FFF7C6F847F4A4
:10398000407700BF42E0206958B1216908680121F1
:10399000FFF7F8F82269032303CA0222FFF7B5F8FC
:1039A00002E06FF00A0096E645F4C0152EE02069AB
:1039B00078B1216908680121FFF7E4F8226903233F
:1039C00003CA0022FFF7A1F847F4407745F4002529
:1039D00002E06FF00A007EE618E0206978B1216904
:1039E00008680121FFF7CEF82269032303CA0222E7
:1039F000FFF78BF84BF0040B45F4801502E06FF0F5
:103A00000A0068E602E06FF00A0064E600BF022DDB
:103A100029D108F4001018B1B0F5001F1FD111E032
:103A2000206958B1216908680121FFF7ABF82269C4
:103A3000032303CA0222FFF768F802E06FF00A00CE
:103A400049E60FE0206928B12269002303CA1A461B
:103A5000FFF75BF847F4007745F4001502E06FF0DC
:103A60000A0038E600BFD4F804A0002606E0701C67
:103A70002AFA00F0484500D802E0761C082EF6D35A
:103A800000BF082E04D0701C2AFA00F0484502D965
:103A90004FF0FF301FE647EAC607A06A856020683E
:103AA000008820F04000216808801FFA8BF040F069
:103AB00020002168888021680F80E8B230B9A06AB0
:103AC000C07920F00400A16AC87105E0A06AC0793D
:103AD00040F00400A16AC8712068008840F04000EE
:103AE000216808800020F6E50146C86AC068704772
:103AF0000CB50146886A0279019862F300000190D2
:103B0000886A4279019862F341000190886A82795B
:103B1000019862F3820001900198009A60F300021C
:103B2000009201984208009862F3410000900198C9
:103B30008208009862F3820000900198C208009801
:103B400062F3DF00009000980CBD2DE9F0410446BF
:103B500020680789002507F0400000283CD0206835
:103B6000008800F4006098B9206890F80C80E06A42
:103B7000C068E16A0968884222D2E06A4068F8B108
:103B8000E06A4168481CE26A506081F8008017E0F2
:103B900020688689E06AC068E16A096888420FD2B5
:103BA000E06A406860B1E06A4268501CE36A5860AD
:103BB00016703112E06A4268501CE36A5860117056
:103BC000E06AC068401CE16AC8602068078901217A
:103BD000A06A417145F0020507F0080020B10121FB
:103BE000A06A417145F0020507F0200040B10121B3
:103BF000A06A8171206800882168088045F004056A
:103C000007F00100002849D02068808800F04000BB
:103C1000002843D0E06AC068E16A096888423BD264
:103C20002068008800F4006068B9206890F80C8073
:103C3000E06A4068C8B1E06A4168481CE26A5060C6
:103C400081F8008011E020688689E06A406860B1F0
:103C5000E06A4268501CE36A586016703112E06AEC
:103C60004268501CE36A58601170E06AC068401CEA
:103C7000E16AC860E06AC068E16A096888420DD1FB
:103C80002068808820F04000216888800020A16A98
:103C9000087145F0010501E045F0020507F002005A
:103CA00000284CD02068808800F08000002846D092
:103CB000E06A0069E16A096888423ED220680088AB
:103CC00000F4006088B9E06A806838B1E06A816811
:103CD000481CE26A906091F8008002E0E06A90F887
:103CE0001880206880F80C8015E0E06A806870B168
:103CF000E06A8168481CE26A90600E78E06A816838
:103D0000481CE26A9060087846EA002601E0E06A12
:103D1000068B20688681E06A0069401CE16A0861C0
:103D2000E06A0069E16A0968884208D120688088F1
:103D300020F080002168888001E045F0020535B15F
:103D4000A06A006818B1A06A016828468847BDE8E3
:103D5000F08170B506460C460125A06AC07900F0D6
:103D6000010008B1002070BDA06A06600020A16AB1
:103D700008710021A06A4171A06A81711C21E06A6A
:103D8000FCF70EFD608BFEF79BFD61690868012161
:103D9000FEF7F8FE6269032303CA0222FEF7B5FEAE
:103DA00005466DB1A06858B1A16808680121FEF709
:103DB000E9FEA268032303CA0222FEF7A6FE054617
:103DC0006DB1E06858B1E16808680121FEF7DAFEDC
:103DD000E268002303CA0222FEF797FE054601208F
:103DE000A16AC8710DB10020BDE74FF0FF30BAE7FE
:103DF0001D49884205D11D49C96841F480511B4ABB
:103E0000D1601B49884205D11849096941F48041B4
:103E1000164A11611749884205D11449096941F4CC
:103E20000041124A116100BF00BF00BF00BF0E4930
:103E3000884205D10D49C96821F480510B4AD160EF
:103E40000B49884205D10949096921F48041074A93
:103E500011610849884205D10449096921F40041EA
:103E6000024A11617047000000300140001002401A
:103E700000380040003C004070B505460C4625B1B6
:103E8000012D7DD0022D7CD14CE02068FFF7B0FFE2
:103E900094F91C00002817DB00F01F02012191405B
:103EA000544A430942F8231000BF00BF00BFBFF3CC
:103EB0004F8F00BF00BF00BF00BF00BF00BFBFF3F8
:103EC0006F8F00BF00BF00BF00BF4B492068884212
:103ED00005D14A48806920F48050484988614849A2
:103EE0002068884205D14548C06920F48040434994
:103EF000C86144492068884205D14048C06920F41F
:103F000000403E49C8610020A16A08710021A06AF2
:103F10004171A06A8171A06AC07920F00200A16A93
:103F2000C87164E0A06AC07900F0010010B94FF0D8
:103F3000FF3070BDA06AC07900F0020008B1002017
:103F4000F7E70020A16A08710021A06A4171A06A08
:103F500081710020E16A0883A06AC07940F0020004
:103F6000A16AC87124492068884205D12348806924
:103F700040F480502149886121492068884201E04D
:103F800032E030E005D11D48C06940F480401B4953
:103F9000C8611C492068884205D11848C06940F4AE
:103FA00000401649C8612068FFF722FF94F91C0001
:103FB000002807DB00F01F0201219140124A43094B
:103FC00042F8231000BF94F91C00002809DB00F020
:103FD0001F02012191404209920002F1E022C2F841
:103FE000001100BF03E000BF6FF00300A1E700BFB6
:103FF00000209EE780E100E0003001400010024018
:1040000000380040003C004080E200E010B503466C
:1040100003B111B96FF0040010BD906AC07900F0CF
:10402000040010B94FF0FF30F6E7906A007910B144
:104030006FF00100F0E7D06818B1906A007A0128AB
:1040400005D0906828B1906A007A022801D1012039
:1040500000E0002010B94FF0FF30DDE70120946A46
:1040600020710024906A4471906A8471D06A436020
:104070000020D46AA060D06A01600020D46AE060A9
:10408000D46A20611068808840F040001468A080E5
:104090001068808840F080001468A0800020BBE792
:1040A00010B5034603B111B96FF0040010BD906A5A
:1040B000C07900F0040010B94FF0FF30F6E7906AC5
:1040C000007910B16FF00100F0E7906818B1906AC4
:1040D000007A012805D0D06828B1906A007A0228B9
:1040E00001D1012000E0002010B94FF0FF30DDE7E2
:1040F0000120946A20710024906A4471906A84714E
:104100000020D46A6060D06A8360D06A01600020B9
:10411000D46AE060D46A20611068808840F0400072
:104120001468A0801068808840F080001468A08027
:104130000020BBE730B504460CB101B112B96FF0F5
:10414000040030BD986AC07900F0040010B94FF047
:10415000FF30F6E7986A007910B16FF00100F0E7E0
:10416000D86808B1986810B94FF0FF30E9E701202E
:104170009D6A28710025986A4571986A8571D86A88
:104180004160D86A8460D86A02600020DD6AE86015
:10419000DD6A28611868808840F0C0001D68A8802A
:1041A0000020CEE710B504466269002303CA1A4610
:1041B000FEF7ABFCE06828B1E268002303CA1A46A8
:1041C000FEF7A3FCA06828B1A268002303CA1A4620
:1041D000FEF79BFC206928B12269002303CA1A4616
:1041E000FEF793FC208BFEF76BFB0020A16AC871E1
:1041F00010BD10B500F002F810BD00000CB5002095
:10420000019000903348006840F4803031490860E4
:1042100000BF3048006800F4003000900198401C56
:104220000190009818B90198B0F5A06FF1D1294814
:10423000006800F4003010B10120009001E000207F
:1042400000900098012843D12348006840F01000F6
:10425000214908600846006820F00300086008460D
:10426000006840F0020008601A4840681949486038
:104270000846406848600846406840F480604860EE
:104280000846406820F47C1048600846406840F4C6
:10429000E81048600846006840F08070086000BF81
:1042A0000C48006800F000700028F9D00948406808
:1042B00020F00300074948600846406840F00200CB
:1042C000486000BF0348406800F00C000828F9D19E
:1042D0000CBD0000001002400020024038B504462A
:1042E00048208DF80300A089ADF800006946A06859
:1042F000FEF780FB38BD38B5044614208DF8030066
:1043000003208DF80200A089ADF800006946A0687E
:10431000FEF770FB38BD000010B51348006840F090
:1043200001001149086008464068104908400E49DC
:104330004860084600680E4908400B490860084676
:10434000006820F4802008600846406820F4FE00E1
:1043500048604FF41F008860FFF74BFF4FF000608C
:104360000449086010BD0000001002400000FFF882
:10437000FFFFF6FE08ED00E070B5E8251A48FEF7ED
:1043800078FDA6211848FEF7C9FCE8211648FEF77B
:10439000C5FCF7211448FEF7C1FC00211248FEF7C6
:1043A000BDFC1148FEF7A5FD00241AE00E48FEF7FB
:1043B00060FDA6210C48FEF7B1FC04F00F00C030F0
:1043C000C1B20948FEF7AAFC10210748FEF7A6FC77
:1043D00000210548FEF7A2FC0348FEF78AFD601C99
:1043E000C4B2102CE2DB70BD5818002010B5044692
:1043F0002146002002F068FF10BD70B504460D464E
:104400002A462146002002F067FF70BD074909785F
:10441000884209D2064951F8200028B1C16819B173
:10442000006808B10020704721207047087B000811
:104430000C7B00082DE9F04106460027002412E01D
:104440000B4850F82400806958B1094850F82400FE
:10445000007FB04205D1204601F00AFF054605B1B4
:104460002F46601CC4B2012CEADB3846BDE8F0815F
:10447000CC1800202DE9F04106460027002412E068
:104480000B4850F82400806958B1094850F82400BE
:10449000007FB04205D1204602F034F8054605B150
:1044A0002F46601CC4B2012CEADB3846BDE8F0811F
:1044B000CC180020014600207047014600207047BC
:1044C000704701460020704710B50446FFF79EFF75
:1044D000002804D12046BDE8104000F039BA10BDD4
:1044E00070B504462D4E0D46C80704D056F824106A
:1044F00009B101208847A80707D556F8241009B14B
:1045000000208847204602F025FE680721D5204676
:1045100002F020FE224850F824000668F078B388A4
:1045200000F00302B178204600F07CFA48B9F07838
:10453000B38800F00302B07840F08001204600F01C
:1045400071FA204602F0ECFD164850F8240000B144
:10455000804728070BD51449012051F82410C96859
:1045600081F89500114850F8240000B18047E80612
:1045700004D50F4850F8240000B18047A80604D5A0
:104580000C4850F8240000B18047290A480704D09D
:104590002046BDE8704000F0CBBD70BD847B0008B4
:1045A00018190020887B00080C7B00088C7B000811
:1045B000907B0008947B000810B504460C480078F6
:1045C000844201D3002010BD0A4850F82400C0687E
:1045D0000028F8D00849D0F8AC0051F824108847DA
:1045E0000028F0D12046BDE81040FFF763BF00006F
:1045F000087B00080C7B0008B07B000810B504465F
:104600000C480078844201D3002010BD0A4850F8BD
:104610002400C0680028F8D00849D0F8AC0051F850
:10462000241088470028F0D12046BDE81040FFF74D
:1046300044BF0000087B00080C7B0008AC7B00082E
:1046400010B504460A48007884420FD2094850F851
:104650002400C068002809D00749A03051F8241070
:1046600088472046BDE81040FFF72ABF10BD000074
:10467000087B00080C7B0008A87B000810B50446E6
:104680000F480078844201D3002010BD0D4850F837
:104690002400C0680028F8D00021C0F8A810C0F895
:1046A000AC10094900F1AC0251F82430111FA030C0
:1046B00098470028E9D12046BDE81040FFF701BF28
:1046C000087B00080C7B0008A47B00082DE9F0475C
:1046D000C6B220480078864239D21F4800244FF0E5
:1046E000FF3750F82600D0F800901C4850F82600FC
:1046F000C10708D0810701D401246427400702D4F0
:1047000044F0020464274FF00008E00701D00121C3
:1047100019E0384602F09AFE0146000113D5D9F897
:104720001C00804700F001054545F2D0A846E0078F
:1047300004D01DB101213046FFF7D2FEA007E8D515
:10474000002DE6D102213046FFF7CAFEE1E7BDE8C1
:10475000F0870000087B00080C7B0008DC180020B4
:1047600070B5174951F82010C9B1CC68BCB1D4F864
:104770009C200025AAB1497D491E0A4202D101218F
:1047800084F89610D4E92623802100F001FA00284D
:1047900004D1F4E926121144C4E9001570BD2120AA
:1047A00070BD94F8961049B100231A46802100F09C
:1047B000EFF90028F4D184F8965070BD222070BD26
:1047C0000C7B0008094910B551F82010CC68002175
:1047D000D4E9262300F0DCF9002805D1F4E926010C
:1047E000084420600020606010BD00000C7B0008C1
:1047F00070B504460D48006818B9FCF747FA0B4934
:1048000008600A480068B0F57A7F03D12046FCF7BB
:10481000FFF970BD05480068A4FB00014FF47A71F0
:10482000B0FBF1F52846FCF7F3F9F2E71C1900207C
:1048300070477047704701460020704701460020CE
:1048400070477047034600207047704770477047B5
:1048500010B5FFF7FAFF10BD7047704770477047FB
:104860000948007810B94FF0FF3070470120074920
:10487000086000200860091D08604FF4E050091F1F
:1048800008600020F1E700007C180020405C004038
:104890000548007810B94FF0FF30704703200349F6
:1048A00008600020F9E700007C180020405C004010
:1048B00008B50E480068009960F3000100910B48AC
:1048C00000684108009861F34200009007480068C2
:1048D000C108009861F3C300009004480068010912
:1048E000009861F31F100090009808BD8018002008
:1048F00010B50C48007810B94FF0FF3010BD0A48D1
:104900000068094909680843074908600220FCF764
:104910007FF905480068044909688843024908602E
:104920000020EBE77C180020405C00400146064870
:10493000007810B94FF0FF30704741F08000034A13
:1049400010600020F8E700007C1800204C5C00405C
:104950002DE9F04105460324154E08E056F82500E0
:10496000642102F00BFC28B10A20FFF741FF641E0E
:10497000E4B2F3D2BCB1DFF83C80022758F825003E
:10498000006840698047040005D00A20FFF730FF27
:104990007F1EFFB2F2D256F8250002F06FFC24B160
:1049A0002220BDE8F0812320FBE70020F9E700008A
:1049B000B01800200C7B00082DE9F0478946054619
:1049C0000324164E09E000BF56F82500642102F0CA
:1049D000D5FB28B10A20FFF70BFF641EE4B2F3D227
:1049E000C4B1DFF83C80022758F825000068416A0E
:1049F00048468847040005D00A20FFF7F9FE7F1ECD
:104A0000FFB2F1D256F8250002F038FC24B1222082
:104A1000BDE8F0872320FBE70020F9E7B01800206D
:104A20000C7B00082DE9FF5F894601F00F02064666
:104A3000102101EAD90026499B4610440B78102822
:104A400006FB0322D4B202D3D9B22144CCB2DFF8A0
:104A500084A0142202EB80005AF82610C968085876
:104A600020B14946304600F003F948BBDFF86880C2
:104A7000022500BF58F82400642102F07FFB28B112
:104A80000A20FFF7B5FE6D1EEDB2F3D2F5B1022795
:104A90005AF826005A4602990068C36A4846984761
:104AA000050005D00A20FFF7A3FE7F1EFFB2EFD25C
:104AB00058F8240002F0E2FB15F1020F06D01DB1F8
:104AC000222004B0BDE8F09F0020FAE72320F8E799
:104AD000587B00080C7B0008042100202DE9F05FC2
:104AE0009346894601F00F020646102101EAD900DB
:104AF0002449104410280B7806FB0322D4B202D3B9
:104B0000D9B22144CCB2DFF880A0142202EB80009D
:104B10005AF82610C968085820B14946304600F0B6
:104B2000A7F840BBDFF86480022500BF58F82400D6
:104B3000642102F023FB28B10A20FFF759FE6D1E05
:104B4000EDB2F3D2E5B102275AF8260059460068C3
:104B5000426B48469047050005D00A20FFF748FE03
:104B60007F1EFFB2F0D258F8240002F087FB15F147
:104B7000020F05D015B12220BDE8F09F0020FBE711
:104B80002320F9E7587B00080C7B00080421002053
:104B90002DE9FF5F884601F00F0304461021314ADA
:104BA00001EAD80018441578012704FB053307FAF9
:104BB00000F1DDB2102802D312782A44D5B22A4B74
:104BC00053F82420D268D6680E4249D1142101EB53
:104BD00080099A4652F8090038B15FEA08703FD15F
:104BE0004146204600F044F8A0BBDFF880B0022622
:104BF00064215BF8250002F0C1FA28B10A20FFF712
:104C0000F7FD761EF6B2F3D256B35AF82410CA68EE
:104C100042F809705FF002075AF82400DDE9021239
:104C20000068836B4046984706000BD00A20FFF7C8
:104C3000DFFD7F1EFFB2EFD25AF824000021C268C8
:104C400042F809105BF8250002F018FB16F1020F7C
:104C500006D01EB1222004B0BDE8F09F0020FAE784
:104C60002320F8E7587B00080C7B00080421002073
:104C70002DE9F05F8A4601F00F020546102101EA96
:104C8000DA002549104410280B7805FB0322D4B222
:104C900002D3D9B22144CCB2DFF8808058F8251075
:104CA000CA68142101EB800B52F80B00002821D0B8
:104CB000DFF86C90022600BF59F82400642102F04E
:104CC0005DFA28B10A20FFF793FD761EF6B2F3D203
:104CD0007EB1022758F825000068016C50468847CD
:104CE000060009D00A20FFF783FD7F1EFFB2F1D234
:104CF00008E02320BDE8F09F58F825000021C26895
:104D000042F80B1059F8240002F0B8FA0EB1222034
:104D1000F0E70020EEE70000587B00080C7B00085D
:104D2000042100202DE9F0410E4601F00F028046DB
:104D30001649102000EAD60010440C78102808FB11
:104D40000422D4B202D308782044C4B2104F022502
:104D5000642157F8240002F011FA28B10A20FFF765
:104D600047FD6D1EEDB2F3D275B10A4951F8280026
:104D70000068C16B30468847054657F8240002F0AA
:104D80007DFA2846BDE8F0810020FBE7587B00084B
:104D9000042100200C7B00082DE9F047894601F032
:104DA0000F020646102101EAD900244910441028B8
:104DB0000B7806FB0322D4B202D3D9B22144CCB281
:104DC000DFF87CA0142202EB80005AF82610C96894
:104DD000085820B149463046FFF74AFF30BBDFF89C
:104DE00064800225642158F8240002F0C7F928B134
:104DF0000A20FFF7FDFC6D1EEDB2F3D2DDB10227F4
:104E00005AF826000068016B48468847050005D01F
:104E10000A20FFF7EDFC7F1EFFB2F1D258F8240004
:104E200002F02CFA15F1020F05D015B12220BDE8D1
:104E3000F0870020FBE72320F9E70000587B0008FB
:104E40000C7B000804210020024951F82000006872
:104E5000406800470C7B0008024951F820000068B8
:104E6000006800470C7B00082DE9F04791468A4610
:104E700005460324164E08E056F82500642102F08A
:104E80007DF928B10A20FFF7B3FC641EE4B2F3D227
:104E9000CCB1DFF840800227494658F82500006869
:104EA000826850469047040005D00A20FFF7A0FC16
:104EB0007F1EFFB2F0D256F8250002F0DFF924B1D0
:104EC0002220BDE8F0872320FBE70020F9E700005F
:104ED000B01800200C7B00082DE9F04789460546F4
:104EE0000324164E09E000BF56F82500642102F0A5
:104EF00045F928B10A20FFF77BFC641EE4B2F3D227
:104F0000C4B1DFF83C80022758F825000068016929
:104F100048468847040005D00A20FFF769FC7F1E39
:104F2000FFB2F1D256F8250002F0A8F924B12220F0
:104F3000BDE8F0872320FBE70020F9E7B018002048
:104F40000C7B00082DE9F047894605460324164EE0
:104F500009E000BF56F82500642102F00FF928B1DE
:104F60000A20FFF745FC641EE4B2F3D2C4B1DFF8B7
:104F70003C80022758F825000068816A4846884727
:104F8000040005D00A20FFF733FC7F1EFFB2F1D2E8
:104F900056F8250002F072F924B12220BDE8F0870E
:104FA0002320FBE70020F9E7B01800200C7B000865
:104FB0002DE9F84303464FEA037C4FEADC6C0CEB27
:104FC000D31C0CEB8C0CDFF8B88008EB8C0003F0E2
:104FD0000F06DFF8B0C0DCF800C00CEB061CBCF814
:104FE0000CC0CCF3090109B9BDE8F883D0F800C0C2
:104FF000BCF1000F00D1F7E7DFF888C0DCF800C093
:105000000CEB061CDCF808C0DFF87C804FF00209CE
:1050100009FB0C84D0F800C0D0F808800CEB080223
:105020004D0804E054F8048B22F8028B6D1E002D0D
:10503000F8D1D0F808C08C44C0F808C001F0010CC9
:10504000BCF1000F0AD01746D4F800C01FFA8CFC40
:10505000ADF800C09DF800C087F800C0B0F80EC0E1
:105060008C4504D04FF0000CC0F804C005E0D0F827
:1050700004C0ACEB010CC0F804C000BFB4E70000F2
:105080006C1E002090180020006000402DE9F047C1
:1050900006463007C00E00EBD61000EB800020491A
:1050A00001EB800406F00F076068E189884201D9AE
:1050B000E58901E0606885B22068A16800EB010A1B
:1050C0001848006800EB071000681749022202FB2D
:1050D0000019A5816068401B6060681C4FEA500899
:1050E00007E03AF8020B49F8040BA8F101001FFA97
:1050F00080F8B8F1000FF4D10A48006800EB0710FF
:1051000045600A4901EB8700D0F8000C00F0300040
:10511000102803D030213046FDF722FFBDE8F0878C
:105120006C1E0020901800200060004000500040DD
:105130002DE9F0470546DC4888460078854278D25C
:10514000DFF8689359F82570002F72D0FC68002CA6
:105150006FD05FEA48704FF0000632D594F8A00097
:10516000000621D5D4F89C0010B994F8960020B11F
:105170002846FFF7F5FA20B30AE094F8970000B349
:1051800084F897602846FFF717FA48B1012807D03E
:10519000012200212846FFF7A1FCC4F89C6010E022
:1051A000284602F0CAF80CE0284602F0BEF840B9E2
:1051B0006078010605D500F07F0161702846FFF791
:1051C000FBFB5FEA887045D594F8A00001063ED449
:1051D000D4F89C1021B12846FFF7F4FA50B32EE022
:1051E00094F8971059B184F897602846FFF706FAAB
:1051F00008B1012823D1284602F092F82AE0C0F332
:105200004111E1B101291AD110F01F0017D0012876
:1052100002D0022813D10EE0284600F053F948B915
:10522000284600F049F928B9284600F048F908B99D
:1052300005E04AE00EE0284600F03BF9F7E70122DE
:1052400080212846FFF74AFCC4F89C6002E028460B
:1052500002F078F85FEAC87037D02846C84659F897
:105260002010C968A031FFF76DFE00282DD1284617
:10527000FFF704FA0121B8B3012863D1D4F8A800DC
:1052800018B9D4F8AC20002A5CD1B4F8A620F2B149
:10529000C4F89800D4F8AC00C4F89C0084F89710C7
:1052A00094F8A0301B0603D42846FFF78BFA0AE0D7
:1052B000904205D27A7D521E104201D184F8961098
:1052C0002846FFF74DFA00283CD1BDE8F08794F856
:1052D000A0000006284603D4BDE8F04702F020B83D
:1052E000BDE8F04702F029B8B868C4F89800B4F8EF
:1052F000A6007A8B904202D9C4F89C2001E0C4F841
:105300009C0094F8A000C0F3411222B1012A7DD084
:10531000022A17D19BE094F8A1000C2812D2DFE8F2
:1053200000F00612AF14AF1A34AF3A505471284649
:1053300001F0EAFB2CE02846FFF782F92846FFF748
:105340000FFAE0B39CE0002100E00121284601F0C3
:1053500035FC98B994E058F82500C06880B3B0F8DF
:10536000A41069BBB0F8A61051BB90F8A010C906F4
:1053700026D190F8A21041F0800141702846FFF735
:105380005FF9284601F0CCFF68E0284601F098FA62
:105390000028D0D174E058F82500C06880B1B0F87A
:1053A000A2206AB9B0F8A42052B9B0F8A620012A08
:1053B00066D190F8A020D20662D1021D1EE04AE01C
:1053C00040E0284601F082FCC3E758F82520CAB324
:1053D000D068B8B3B0F8A230A3BBB0F8A630012BA8
:1053E0004ED190F8A03003F01F03012B48D1B0F844
:1053F000A430578ABB4243D252681A44C0E92621DE
:1054000099E703E0284601F095FDA2E710F01F00A0
:1054100036D0012802D0022832D114E0284600F00C
:105420001FF958B9284600F0C7F938B9284600F0E6
:1054300011F918B9284600F010F918B12846FFF7FD
:10544000FFF80BE01CE0284600F001F9F5E72846DC
:1054500001F000FB9CE7284601F06FFF94F8A000E4
:1054600000063FF532AFB4F8A60000283FF42DAF98
:105470002846FFF7A7F90028F8D00122802109E08B
:1054800094F8A0000006B4F8A60009D40028F4D0CF
:10549000012200212846FFF721FBC4F89C6014E795
:1054A0000028EAD1F4E70000087B00080C7B000824
:1054B00070470146002070470146002070470146B2
:1054C000002070472DE9F0410546184800788542D4
:1054D00026D2174850F82500C6680EB30024DFF81E
:1054E0005480154F19E000BF58F8240098B1017F8F
:1054F000A94210D1B6F8A410407F81420BD196F892
:10550000A100092807D1204600F00AFD18B128465D
:1055100001F006FF38B1641CE4B238788442E3D36A
:105520000020BDE8F0810120FBE70000087B0008B7
:105530000C7B0008CC180020107B00082DE9F047F8
:105540003B4B1B78984271D23A4B53F820C0BCF1C8
:10555000000F6BD0DCF80C40002C67D0B4F8A23000
:10556000DFF8D4901B0A354F354D212B02D0222B6A
:105570005CD131E000263346BA460FE05AF823707A
:1055800057B197F81C80804506D1B4F8A4807F7F7E
:10559000B84506D0761CF6B25B1CDBB22F78BB4256
:1055A000ECD32D78AE4241D09CF81160254D94F893
:1055B000954066B164B155F8200040690860044622
:1055C00059F82300C08820440860092029E064BB02
:1055D00055F820000069F1E70026334613E000BFCC
:1055E00057F823C0BCF1000F0BD09CF81C808045FD
:1055F00007D1B4F8A4809CF81DC0E04507D0761C04
:10560000F6B25B1CDBB295F800C06345E8D328789E
:1056100086420BD059F8234024680C6059F82300C7
:10562000808810600120BDE8F087FFE70020FAE7DE
:10563000087B00080C7B0008D87B0008CC180020F1
:10564000107B000818190020024600207047014610
:105650000020704701460020704701460020704737
:105660002DE9F05F504980460978884270D24F4951
:1056700051F82870002F6BD0FC68002C68D00026F1
:105680004FF0030A4FF0010BDFF8249185E0494801
:1056900050F82650002D7ED0297F41457BD1B4F8AB
:1056A000A410687F814276D194F8A1000C2872D2B0
:1056B000DFE800F071063E5171717171712347632B
:1056C000304600F099FB90B3B4F8A200BBEB102F6A
:1056D00006D1698ED4F89C00884263D8E86808E057
:1056E000BAEB102F28D1E98ED4F89C00884259D803
:1056F0006869401CC4F898001EE0B4F8A2000221BA
:10570000B1EB102F06D1A98ED4F89C00884249D85D
:10571000286908E0BAEB102F3AD1E98ED4F89C0042
:1057200088423FD86869401CC4F8980030E032E0F5
:10573000304600F025FB11E04046FFF711F8C0B1FC
:1057400029E0B4F8A60018B9304600F089FB1AE049
:1057500028E0E8B11FE0304600F02EFBD8B1B86871
:10576000C4F89800D4F89C000128E5D9C4F89CB08E
:10577000E2E7404601F0E1FDEBE7B4F8A60088B9A6
:10578000304600F0ADFB30B1404601F0C9FDE0E726
:105790000120BDE8F09F761CF6B299F80000864221
:1057A000FFF475AF0020F4E7087B00080C7B0008CD
:1057B000107B0008CC180020014600207047000034
:1057C0002DE9F05F04468A46934604F00F05082D44
:1057D00003D94FF0FF30BDE8F09F6348007810B95F
:1057E0004FF0FF30F7E72007C00E00EBD41000EBBE
:1057F00080005E4901EB800898F8100010B16FF04E
:105800000100E8E7CBF30A06C4F3C0192007C00E75
:1058100000EBD410564931F8100081192007C00E52
:1058200000EBD410401C524A32F81000814202DDD5
:105830004FF0FF30CFE714214046FAF7B1FFA8F848
:105840000E60B9F1000F0CD02007C00E00EBD41091
:10585000474931F810004749096801EB0511086014
:1058600027E02007C00E00EBD410414931F81000AA
:105870004049096801EB051188603E2E0FDD06F1F5
:105880001F0020F01F0086B20120C0EB461040F43C
:1058900000403849096801EB0511C86009E0701C37
:1058A00020F0010086B270023249096801EB05114F
:1058B000C860BAF1000F09D0BAF1010F09D0BAF1EE
:1058C000020F09D0BAF1030F0BD107E04FF40077B4
:1058D00007E04FF4806704E0002702E04FF4C06760
:1058E00000BF00BF24B94FF448502349086038E096
:1058F000802C36D02F43214901EB8500C0F8007C75
:10590000B9F1000F16D0280701EB9060D0F8000C19
:1059100048F6FF71084040F0800040F4004029073D
:10592000164A02EB9161C1F8000C20212846FDF7D0
:1059300017FB16E02807114901EB9060D0F8000C26
:105940004FF68F71084040F0800040F40040290776
:105950000A4A02EB9161C1F8000C51142846FDF788
:1059600007FE002037E700007C1800206C1E002096
:10597000487A000890180020005C00400050004069
:105980002DE9F04105460F4605F00F04082C03D918
:105990004FF0FF30BDE8F0812B48007810B94FF090
:1059A000FF30F7E72807C00E00EBD51000EB8000B2
:1059B000264901EB800898F8100010B16FF0010043
:1059C000E8E7C5F3C016012F0BD126B11021204600
:1059D000FDF7C6FA35E04FF480512046FDF7C8FDCB
:1059E0002FE0BEB120071A4901EB9060D0F8000CFF
:1059F00048F6FF71084040F0800040F40040210765
:105A0000134A02EB9161C1F8000C20212046FDF7FA
:105A1000A7FA16E020070E4901EB9060D0F8000CC1
:105A20004FF68F71084040F0800040F4004021079D
:105A3000074A02EB9161C1F8000C51142046FDF7B2
:105A400097FD0020A6E700007C1800206C1E0020B7
:105A50000050004070B506460D4600241EE0114877
:105A600050F824008069B8B10E4850F82400007F37
:105A7000B04211D10B4850F82400807F40F08000E4
:105A8000A84205D0074850F82400C07FA84203D19F
:105A90002946204600F07CFA601CC4B2012CDEDBF3
:105AA00070BD0000CC180020704700002DE9F047C1
:105AB00005460E46174605F00F08B8F1080F03D942
:105AC0004FF0FF30BDE8F0871548007810B94FF06F
:105AD000FF30F7E72807C00E00EBD51000EB800081
